:100000000C945E000C9486000C9486000C94860080
:100010000C9486000C9486000C9486000C94860048
:100020000C9486000C9486000C9486000C94860038
:100030000C9486000C9486000C9486000C94860028
:100040000C94E9040C9486000C9459050C94330527
:100050000C9486000C9486000C9486000C94860008
:100060000C9486000C948600000000080002010039
:100070000003040700000000000000000000000072
:10008000250028002B0000000000240027002A0083
:10009000040404040404040402020202020203032E
:1000A0000303030301020408102040800102040836
:1000B00010200102040810208B05290811241FBEFE
:1000C000CFEFD8E0DEBFCDBF22E0A2EBB1E001C0B0
:1000D0001D92A236B207E1F711E0A0E0B1E0EAE636
:1000E000F6E102C005900D92A23BB107D9F710E0EE
:1000F000CDE5D0E004C02197FE010E941309CC3564
:10010000D107C9F70E94BD050C94280B0C94000080
:1001100090E0FC01EC55FF4F2491FC01E057FF4FAC
:100120008491882399F090E0880F991FFC01EA5789
:10013000FF4FA591B491FC01E458FF4F8591949134
:100140008FB7F894EC91E22BEC938FBF089590E079
:10015000FC01E859FF4F2491FC01EC55FF4F34910D
:10016000FC01E057FF4FE491EE2309F43CC0222349
:1001700039F1233091F038F42130A9F0223001F523
:1001800084B58F7D12C0273091F02830A1F0243043
:10019000B9F4809180008F7D03C0809180008F77BB
:1001A000809380000DC084B58F7784BD09C0809195
:1001B000B0008F7703C08091B0008F7D8093B00036
:1001C000F0E0EE0FFF1FE458FF4FA591B4919FB7E9
:1001D000F894611104C08C913095382302C0EC91E1
:1001E0003E2B3C939FBF0895CF93DF93EC018AE0B1
:1001F0000E948800209711F460E004C0CF3FD10531
:1002000031F461E08AE0DF91CF910C94A700E2E73E
:10021000F0E0E491E330F9F048F4E130B9F0E23095
:10022000A1F584B5806284BDC8BD34C0E730E9F073
:10023000E83019F1E43049F58091800080628093C4
:100240008000D0938B00C0938A0024C084B580685E
:1002500084BDC7BD1FC080918000806880938000EE
:10026000D0938900C093880015C08091B000806849
:100270008093B000C093B3000DC08091B000806245
:100280008093B000C093B40005C0C038D1050CF015
:10029000B8CFB2CFDF91CF9108950895CF92DF927A
:1002A000EF92FF920F931F93CF93DF936C017A012C
:1002B0008B01C0E0D0E0CE15DF0581F0D8016D9153
:1002C0008D01D601ED91FC910190F081E02DC601E8
:1002D0000995892B11F02196EECF7E01C701DF91A0
:1002E000CF911F910F91FF90EF90DF90CF900895E5
:1002F00080E090E00895FC01538D448D252F30E07F
:10030000842F90E0821B930B541710F0CF96089522
:1003100001970895FC01918D828D981761F0828D6F
:10032000DF01A80FB11D5D968C91928D9F5F9F7329
:10033000928F90E008958FEF9FEF0895FC01918DCB
:10034000828D981731F0828DE80FF11D858D90E038
:1003500008958FEF9FEF0895FC01918D228D892FD5
:1003600090E0805C9F4F821B91098F7399270895BD
:100370008BEB91E00E94AC0121E0892B09F420E095
:10038000822F0895FC01848DDF01A80FB11DA35AAF
:10039000BF4F2C91848D90E001968F739927848FA5
:1003A000A689B7892C93A089B1898C9183708064C8
:1003B0008C93938D848D981306C00288F389E02D69
:1003C00080818F7D80830895EF92FF920F931F931A
:1003D000CF93DF93EC0181E0888F9B8D8C8D9813F8
:1003E00005C0E889F989808185FD26C0F62E0B8D30
:1003F00010E00F5F1F4F0F731127E02E8C8DE81256
:100400000CC00FB607FCFACFE889F989808185FF17
:10041000F5CFCE010E94C201F1CF8B8DFE01E80F16
:10042000F11DE35AFF4FF0829FB7F8940B8FEA89D2
:10043000FB89808180620AC09FB7F894EE89FF89AA
:100440006083E889F98980818370806480839FBF9D
:1004500081E090E0DF91CF911F910F91FF90EF909D
:100460000895CF93DF93EC01888D8823C9F0EA8942
:10047000FB89808185FD05C0A889B9898C9186FD9D
:100480000FC00FB607FCF5CF808185FFF2CFA8899A
:10049000B9898C9185FFEDCFCE010E94C201E7CFD3
:1004A000DF91CF91089580E090E0892B29F00E94A0
:1004B000B80181110C9400000895CF92DF92EF9261
:1004C000FF92CF936B017C019B01AC016EEF7FEF3C
:1004D00081E090E00E94BA089B01AC0160E074E208
:1004E00084EF90E00E94CA08C0E0EC2FF0E0EE0F2D
:1004F000FF1FE45EFE4F80819181CF5F82179307DB
:10050000A0F3EC2FF0E0EE0FFF1FE45EFE4FA081A2
:10051000B181A7019601220F331F441F551F0E946E
:1005200069089B01AC0160E074E284EF90E00E94F6
:10053000CA08309387002093860080918100887FCD
:10054000C770C82BC093810081E0CF91FF90EF90DE
:10055000DF90CF9008958F929F92AF92BF92CF92EB
:10056000DF92EF92FF920F931F93CF936B017C0169
:10057000AEEFB1E09B01AC010E9469089B01AC01A8
:1005800060E074E284EF90E00E94CA08C0E0CC0C06
:10059000DD1CEE1CFF1C812C44E2942E44EFA42EA3
:1005A000B12CCF5FEC2FF0E0EE0FFF1FE45FFE4FAA
:1005B0000081118102171307A0F3D801A70196014A
:1005C0000E9469089B01AC01C501B4010E94CA08E0
:1005D0002F3F310519F010F09801E3CF2093B300BD
:1005E0008091B100887FC770C82BC093B10081E0B3
:1005F000CF911F910F91FF90EF90DF90CF90BF9020
:10060000AF909F908F9008950F931F93E2E7F0E0D3
:10061000E4912DEF2E0F223078F48B019C010150D4
:10062000110921093109003814482E413105A8F477
:100630001F910F910C945D02E83079F48B019C01BD
:100640000F51110921093109023614482E41310593
:1006500020F41F910F910C94AB0280E01F910F9139
:100660000895009769F0FC0101900020E9F73197A7
:10067000AF01481B590BBC018BEB91E00C944E0170
:1006800080E090E00895CF93DF930E943103EC0166
:100690008AE391E00E9431038C0F9D1FDF91CF917F
:1006A00008958F929F92AF92BF920F931F93CF9313
:1006B000DF93CDB7DEB7A1970FB6F894DEBF0FBEBC
:1006C000CDBF19A2423008F44AE08E010F5D1F4FE2
:1006D000842E912CA12CB12CA50194010E94CA0852
:1006E000E62FB901CA0101501109EA3014F4E05DA6
:1006F00001C0E95CD801EC93232B242B252B61F757
:10070000C8010E943103A1960FB6F894DEBF0FBE58
:10071000CDBFDF91CF911F910F91BF90AF909F9070
:100720008F900895CF92DF92EF92FF92CF93DF9355
:100730006B017C016DE28BEB91E00E94E401EC0126
:1007400066277727CB016C197D098E099F094AE03E
:100750000E9451038C0F9D1FDF91CF91FF90EF906E
:10076000DF90CF900895EF92FF920F931F93CF9356
:10077000DF93FC0100811181FB01C081D181F8016F
:1007800081918F01882389F0082E000C990B0E941B
:10079000050B7C018991082E000C990B0E94050B1A
:1007A000E816F90661F380E001C081E0DF91CF91A6
:1007B0001F910F91FF90EF900895FC01808191812E
:1007C0000C94B1090F931F93CF93DF938C01EB012E
:1007D000FC0180819181009739F0688179816115F0
:1007E0007105A1F40E94B10988819981F801918372
:1007F00080838A819B81938382838C819D81958371
:100800008483198218821B821A820FC0F8014281E8
:1008100053812C813D814217530720F30E94210B05
:100820008C819D81F801958384831D821C82DF91D8
:10083000CF911F910F9108950E94000B0F931F936A
:10084000CF93DF93EC0188819981009729F02A8169
:100850003B812617370788F48B016F5F7F4F0E941B
:100860003A0A009761F0998388831B830A832C815D
:100870003D81232B11F4FC01108281E001C080E056
:10088000DF91CF911F910F910895EF92FF920F93F7
:100890001F93CF93DF93EC017B018A01BA010E9481
:1008A0001E042881398181110DC02115310519F0EF
:1008B000C9010E94B109198218821D821C821B8203
:1008C0001A8206C01D830C83B701C9010E94210B47
:1008D000CE01DF91CF911F910F91FF90EF9008957E
:1008E000FC0111821082138212821582148261151A
:1008F000710551F0FB0101900020E9F73197AF013C
:10090000461B570B0C9445040895BF92CF92DF927B
:10091000EF92FF920F931F93CF93DF937C016B01B4
:10092000EA0189012417350720F48D2FE901042FEE
:10093000182F6CE371E0C7010E947004D601149671
:100940008D919C911597C817D907C0F5801791070D
:1009500008F48C01D601ED91FC911197E00FF11F85
:10096000B08010826D917C916C0F7D1F61157105B7
:1009700061F0FB0101900020E9F73197AF01461BC0
:10098000570BC7010E94450413C0F7018081918174
:10099000009711F00E94B109D70111961C921E9286
:1009A00015961C921E92149713961C921E921297E3
:1009B000D601ED91FC91E00FF11FB082C701DF91EC
:1009C000CF911F910F91FF90EF90DF90CF90BF904C
:1009D00008951F920F920FB60F9211242F933F93F9
:1009E0008F939F93AF93BF938091B7019091B8017C
:1009F000A091B901B091BA013091B60123E0230F63
:100A00002D3720F40196A11DB11D05C026E8230F46
:100A10000296A11DB11D2093B6018093B70190935A
:100A2000B801A093B901B093BA018091B20190913D
:100A3000B301A091B401B091B5010196A11DB11D02
:100A40008093B2019093B301A093B401B093B50128
:100A5000BF91AF919F918F913F912F910F900FBEBA
:100A60000F901F9018951F920F920FB60F9211249E
:100A70002F933F934F935F936F937F938F939F93A6
:100A8000AF93BF93EF93FF938BEB91E00E94C20172
:100A9000FF91EF91BF91AF919F918F917F916F9156
:100AA0005F914F913F912F910F900FBE0F901F902C
:100AB00018951F920F920FB60F9211242F938F93B8
:100AC0009F93EF93FF93E091CB01F091CC01808154
:100AD000E091D101F091D20182FD12C0908180910C
:100AE000D4018F5F8F732091D501821751F0E0916F
:100AF000D401F0E0E554FE4F958F8093D40101C0FE
:100B00008081FF91EF919F918F912F910F900FBE58
:100B10000F901F901895EBEBF1E01382128288EE94
:100B200093E0A0E0B0E084839583A683B7838CE252
:100B300091E09183808385EC90E09587848784ECB5
:100B400090E09787868780EC90E0918B808B81EC9A
:100B500090E0938B828B82EC90E0958B848B86EC7B
:100B600090E0978B868B118E128E138E148E6CE311
:100B700071E088E592E00C947004CF93DF93CDB7D9
:100B8000DEB768970FB6F894DEBF0FBECDBF78947E
:100B900084B5826084BD84B5816084BD85B5826082
:100BA00085BD85B5816085BD80916E008160809333
:100BB0006E0010928100809181008260809381009C
:100BC00080918100816080938100809180008160AC
:100BD000809380008091B10084608093B100809107
:100BE000B00081608093B00080917A00846080932F
:100BF0007A0080917A00826080937A0080917A00F6
:100C0000816080937A0080917A00806880937A0076
:100C10001092C100E091CB01F091CC0182E0808381
:100C2000E091C701F091C8011082E091C901F091F3
:100C3000CA018FEC80831092D301E091CF01F09133
:100C4000D00186E08083E091CD01F091CE018081DA
:100C500080618083E091CD01F091CE018081886038
:100C60008083E091CD01F091CE0180818068808306
:100C7000E091CD01F091CE0180818F7D80838091C4
:100C800080008C7F8093800080918100877E8061CE
:100C90008093810064EF71E080E090E00E945D024B
:100CA0008091B0008C7F81608093B0008091B10012
:100CB00088608093B10064EF71E080E090E00E9472
:100CC000AB0260EA76E881E090E00E9404038823AA
:100CD00051F08DE00E94880061E08DE00E94A70045
:100CE0008AE00E94880088E290E00E94F400C12C13
:100CF00024E2D22E24EFE22EF12C34E6832E912C26
:100D0000A12CB12C8BEB91E00E94AC01892B09F452
:100D10009DC18BEB91E00E948A018A3009F074C179
:100D20001C8A1B8A1E8A1D8A188E1F8A609158028F
:100D3000709159026115710541F040915C0250912A
:100D40005D02CE0143960E9445046CE371E0CE0142
:100D50000D960E9470046CE371E0CE0107960E942C
:100D600070048F89988D892B69F00B891C8960E24A
:100D700070E0C8010E94160B009721F09C01201B17
:100D8000310B02C02FEF3FEF40E050E0BE016D5E3F
:100D90007F4FCE0101960E948504BE016F5F7F4F99
:100DA000CE010D960E94E203CE0101960E94DD0362
:100DB0006F88788C6114710469F00B891C8960E27A
:100DC00070E0C8010E94160B009721F0AC01401B97
:100DD000510B02C04FEF5FEF4F5F5F4F9301BE01BA
:100DE0006D5E7F4FCE0101960E948504BE016F5F4C
:100DF0007F4FCE0107960E94E203CE0101960E942A
:100E0000DD036DE371E0CE0101960E9470048989D3
:100E10009A892D813E818217930759F4892B59F0C5
:100E2000BE016F5F7F4FCE010D960E94B303182F56
:100E300003C010E001C011E0CE0101960E94DD0365
:100E4000112309F44CC08F819885009729F00E94E6
:100E50002D082B013C0103C0412C512C320185E6A9
:100E6000481651046104710410F010E0A2C05092C1
:100E70000501409204018091000190910101A0912F
:100E80000201B09103019C01AD01220F331F441FE9
:100E9000551FC701B6010E94EC08C301B2010E94B0
:100EA000BA08A50194010E94EC08C9010E94F4004F
:100EB0008FE391E00E94310360910401709105017C
:100EC000072E000C880B990B97FF03C00E9492031A
:100ED00003C04AE00E9451038CE491E067C06EE4D5
:100EE00071E0CE0101960E94700489899A892D8152
:100EF0003E818217930761F4892B49F0BE016F5F31
:100F00007F4FCE010D960E94B303182F01C011E050
:100F1000CE0101960E94DD03112309F4A6CF8F8133
:100F20009885009739F00E942D082B013C0197FF0E
:100F300004C09BCF412C512C3201409200015092B1
:100F400001016092020170920301C301B2010E948B
:100F50000403A3019201220F331F441F551FC70131
:100F6000B6010E94EC08A0910401B09105010E9415
:100F70000B09A50194010E94EC08C9010E94F4002C
:100F800080E591E00E9431036091000170910101C0
:100F9000809102019091030197FF03C00E94920388
:100FA00003C04AE00E9451038CE591E00E94430394
:100FB00011E0CE0107960E94DD03CE010D960E943E
:100FC000DD03CE0143960E94DD03111114C08FE5AD
:100FD00091E00E9443038CE391E00E9443038DE67D
:100FE00091E00E9443038BE791E00E94430385E96F
:100FF00091E00E94430340E050E06CE371E088E53B
:1010000092E00E94450422C089831A8200915C020A
:1010100010915D020F5F1F4FB80188E592E00E94BA
:101020001E04882399F02091580230915902809132
:101030005C0290915D02BE016F5F7F4F820F931F34
:101040000E94210B10935D0200935C020E945302E8
:1010500059CE88E592E00C94DD031F93FC0199279B
:101060008827BC01E89411911032E9F3193010F08F
:101070001E30C8F31B3251F01D3249F4689406C08B
:101080000E945408610F711D811D911D1191105313
:101090001A30B0F33EF490958095709561957F4F2E
:1010A0008F4F9F4F1F910895592F482F372F262F6D
:1010B000660F771F881F991F660F771F881F991F5C
:1010C000620F731F841F951F660F771F881F991F5C
:1010D00008950E94AB08A59F900DB49F900DA49F0A
:1010E000800D911D112408952F923F924F925F928F
:1010F0006F927F928F929F92AF92BF92CF92DF9228
:10110000EF92FF920F931F93CF93DF93CDB7DEB78C
:10111000CA1BDB0B0FB6F894DEBF0FBECDBF099420
:101120002A88398848885F846E847D848C849B8477
:10113000AA84B984C884DF80EE80FD800C811B8185
:10114000AA81B981CE0FD11D0FB6F894DEBF0FBEB4
:10115000CDBFED010895A29FB001B39FC001A39F31
:10116000700D811D1124911DB29F700D811D1124E0
:10117000911D0895DB018F939F930E946908BF9191
:10118000AF91A29F800D911DA39F900DB29F900DD6
:1011900011240895A1E21A2EAA1BBB1BFD010DC04C
:1011A000AA1FBB1FEE1FFF1FA217B307E407F50717
:1011B00020F0A21BB30BE40BF50B661F771F881FF3
:1011C000991F1A9469F760957095809590959B0189
:1011D000AC01BD01CF010895052E97FB1EF40094CC
:1011E0000E94030957FD07D00E94CA0807FC03D0DC
:1011F0004EF40C94030950954095309521953F4F3E
:101200004F4F5F4F089590958095709561957F4FF2
:101210008F4F9F4F0895B7FF0C9469080E9469088B
:10122000821B930B0895EE0FFF1F0590F491E02DA4
:1012300009940F931F93CF93DF938230910510F49D
:1012400082E090E0E0916002F091610220E030E005
:10125000A0E0B0E0309719F1408151810281138103
:1012600048175907C8F08417950769F4109731F0AB
:1012700012960C93129713961C9327C0009360024A
:101280001093610222C02115310519F0421753074E
:1012900018F49A01BD01EF01DF01F801DBCF211540
:1012A0003105F9F0281B390B2430310580F48A818F
:1012B0009B816115710521F0FB019383828304C03A
:1012C0009093610280936002FE01329644C0FE0159
:1012D000E20FF31F819391932250310939832883C0
:1012E0003AC020915E0230915F02232B41F420919D
:1012F00008013091090130935F0220935E02209132
:101300000601309107012115310541F42DB73EB793
:1013100040910A0150910B01241B350BE0915E02B4
:10132000F0915F02E217F307A0F42E1B3F0B281782
:10133000390778F0AC014E5F5F4F2417350748F04E
:101340004E0F5F1F50935F0240935E028193919313
:1013500002C0E0E0F0E0CF01DF91CF911F910F914B
:101360000895CF93DF93009709F481C0FC01329771
:1013700013821282A0916002B0916102109781F4F1
:1013800020813181820F931F20915E0230915F0294
:101390002817390751F5F0935F02E0935E0267C0AA
:1013A000ED0120E030E0CE17DF0740F44A815B8199
:1013B0009E0141155105F1F0EA01F5CFD383C283B7
:1013C00040815181840F951FC817D90759F488812E
:1013D0009981840F951F0296918380838A819B81D6
:1013E000938382832115310529F4F0936102E09300
:1013F00060023DC0E901FB83EA8349915991C40F22
:10140000D51FEC17FD0761F480819181840F951F32
:101410000296E90199838883828193819B838A83E1
:10142000E0E0F0E012968D919C911397009719F0EF
:10143000FD01DC01F7CF8D919C9111979D012E5FED
:101440003F4F820F931F20915E0230915F02281759
:10145000390769F4309729F4109261021092600202
:1014600002C013821282B0935F02A0935E02DF91EA
:10147000CF910895A0E0B0E0E0E4FAE00C947808A1
:10148000EC01009721F4CB010E941909B4C0FC01C2
:10149000E60FF71F9C0122503109E217F30708F409
:1014A000A8C0D9010D911C91119706171707B0F02C
:1014B0000530110508F49BC0C801049786179707EB
:1014C00008F495C002501109061B170B01931193E4
:1014D0006D937C93CF010E94B10989C05B01A01A72
:1014E000B10A4C01800E911EA0916002B091610280
:1014F000612C712CE12CF12C109709F446C08D91D0
:101500009C911197A815B905B1F56C0142E0C40E84
:10151000D11CCA14DB0478F14C018A189B086401C1
:1015200042E0C40ED11C1296BC9012971396AC9157
:10153000B5E0CB16D10440F0B282A38391828082C1
:10154000D9016D937C9309C00E5F1F4F800F911FCF
:10155000F90191838083EB2DFA2FE114F10431F02E
:10156000D7011396FC93EE93129741C0F09361025A
:10157000E09360023CC06816790608F43C017D01E6
:1015800012960D90BC91A02DB7CF80915E029091E4
:101590005F0288169906E1F466167706C8F4809112
:1015A000060190910701009741F48DB79EB74091D5
:1015B0000A0150910B01841B950BE817F907C8F439
:1015C000F0935F02E0935E02F901718360830FC0C4
:1015D000CB010E9419097C01009759F0A801BE01B6
:1015E0000E940D0BCE010E94B109C70104C0CE01BB
:1015F00002C080E090E0CDB7DEB7EEE00C94940836
:1016000081E090E0F8940C94280B91110895815496
:101610008A5108F4805E855A0895FB01DC0102C0FE
:1016200001900D9241505040D8F70895FC018191EE
:10163000861721F08823D9F7992708953197CF018C
:101640000895FB01DC0101900D920020E1F708955F
:1016500010E0CDE5D0E004C0FE010E941309219600
:0A166000CE35D107C9F7F894FFCF8B
:10166A00A086010032000000620220000000010092
:10167A000800200040008000000100040000010072
:10168A00080040000001000400000000E4014E01CF
:10169A007B013102AC018A019E010D0A004400441B
:1016AA00757479204379636C653A200025004600F9
:1016BA004672657175656E63793A2000487A004909
:1016CA006E76616C696420496E7075740056616C3F
:1016DA00696420496E707574733A00274420353066
:1016EA00272C2044757479204379636C65205570E2
:1016FA0064617465002746203130303030272C2051
:10170A004672657175656E6379205570646174659A
:02171A000000CD
:00000001FF
